:020000041000EA
:10000000002008205D0100101B0100101D010010E0
:100010001101001011010010110100101101001058
:100020001901001019010010190100101F01001022
:10003000110100101901001021010010230100100E
:100040001101001011010010110100101101001028
:100050001101001011010010110100101101001018
:100060001101001011010010110100101101001008
:1000700011010010110100101101001011010010F8
:1000800011010010110100101101001011010010E8
:1000900011010010110100101101001011010010D8
:1000A00011010010110100101101001011010010C8
:1000B00011010010110100101101001011010010B8
:1000C00011010010110100101101001011010010A8
:1000D0001101001011010010110100101101001098
:1000E0001101001011010010110100101101001088
:1000F0001101001011010010110100101101001078
:100100001101001011010010110100101101001067
:10011000EFF30580103800BE00BE00BE00BE00BE7A
:1001200000BE00BEF2EB8871081003102810031007
:10013000A001001090A31AE7D3DEFFFF42012110B7
:10014000FF01000070330300793512AB4FF000005F
:100150001E49086006C881F3088810474FF05040D8
:10016000006810B14FF00000F2E70DA40ECC00299A
:1001700002D000F012F8F9E71549164A002000E015
:1001800001C19142FCD11449884714498847144958
:10019000884700BEFDE701C901C29A42FBD3704700
:1001A000281003101001002090250020A83403100F
:1001B0000000082000000820A834031000100820C8
:1001C00000100820000000007047000008ED00E06B
:1001D000902500209406022001A00010F9130010C1
:1001E000F99F0010F8B500BF064B0749C91A8910DE
:1001F00048BF0131491003D0044B0BB101481847E7
:10020000704700BF902500209025002000000000CE
:1002100008B5054B1BB105490548AFF30080BDE8A3
:100220000840FFF7E1BF00BF00000000989D0020DC
:1002300070D4001010B500242046013405F07AFD7A
:100240001A2CF9D11C2005F075FD002201210F2088
:1002500005F03EFD00220121162005F039FD024B7C
:1002600000EE143010BD00BF403D800200B52A4BA7
:1002700083B093F839208AB30AF01AF91F210B20B2
:1002800005F008FD00220B20114605F021FD00219C
:100290000B2005F03FFD0821204A214BD2F800C079
:1002A00020488CEA030302F5005203F47043036014
:1002B00011600A2005F03EFD4FF0504300224FF43C
:1002C00040610A201962114605F002FD00220B2050
:1002D000114603B05DF804EB05F0FABC0F4B0A20A1
:1002E00019681A60019205F025FD0B2005F022FD2A
:1002F0004FF050434FF44061019A0A2019621146B1
:10030000019205F0E5FC019A0B20114603B05DF85F
:1003100004EB05F0DDBC00BFA498002000000A40FB
:100320000010FFFF00100A4030B54FF4807283B018
:10033000032111480AF0F6FC0546104B01A91B6881
:100340000F4801930AF05EFA28460AF0EFFA0121FD
:1003500028460AF003FD0446C268036892000021A3
:1003600058680CF0BBFDE36828462146A3600AF0FC
:10037000EBFC284603B030BD581C0020440B011094
:10038000501C002000230249024A0B701370704772
:100390008B0602208A060220002110B5114C0B208A
:1003A0002278521A18BF012205F092FC002122780F
:1003B0000A20521A18BF012205F08AFC0A4B0B488A
:1003C0001A780B4C032A14BF4FF600734CF240030B
:1003D000027008492478084A08480B80047013808A
:1003E00010BD00BF76060220740602208806022097
:1003F00078060220289E0020249E002077060220F6
:100400002DE9F04F484C83B000214FF0FF3005F04C
:10041000D9FD4649204606F0CDFB0221002005F01B
:1004200039FC0221012005F035FC206B404D00F421
:1004300040400023012228630821204606F042FCA8
:100440000121204606F07CFC4FF0000A01F0A6F9DD
:10045000DFF8F8B0374D01F02DFA01F0D1F9364B45
:10046000DBF804901F78354BAE881B7895F802C0F6
:100470000093DBF8003095F800E00193304B95F8DD
:1004800001801B78A269D20610D4A269D206FCD4DE
:100490002268D1B2032BF5D8DFE803F01702331F2F
:1004A000A2698C46D2064FF00203EED5019AAE80C7
:1004B000CBE90029204A85F802C01770204A85F848
:1004C000018085F800E01370C5E71006DAD5012336
:1004D000C2F3401E01F01F08D4E74FEA082303F4DB
:1004E000F85343EA0C036FEA43406FEA50407A1C2A
:1004F000BEF1000F08BF1846009BD2B2934203D151
:10050000FEE70E460323BDE74FF000090D4B46EA18
:10051000012623F817000C4BB24443F827A0CDF86E
:1005200004A017464B46ADE70000074080841E003C
:100530000010074054FC01208B0602208A0602208E
:100540008E06022038F6012038F80120E04C002009
:100550004FF4C07238B51B491B480CF02DFD1B48E9
:10056000042102461A4B1B681D685C68D3F808E03A
:10057000D3F80CC0013915605460C2F808E0C2F825
:100580000CC003F1100302F11002EDD1114B12491E
:100590001C785D780378114AFF2B0CD090F8383026
:1005A00013B915700C7038BD90F8364090F837309C
:1005B0000C70137038BD0C701570BDE8384001F038
:1005C000D7BA00BF2C13011030660120A498002078
:1005D000601C002000B0011071060220700602208D
:1005E00038B5022206212A4806F050FC294C204644
:1005F000A0F10100FCD14FF4805127480CF000FF1E
:100600004FF48072254924480CF0D6FE02220621C0
:100610001F4806F03BFC2046A0F10100FCD14FF43E
:10062000C0721F491F480CF0C7FC1C480421024639
:100630001D4B1B681D68D3F804E0D3F808C0DC68C4
:1006400001391560C2F804E0C2F808C0D46003F1B3
:10065000100302F11002EDD1144B15491C785D789E
:100660000378144AFF2B0CD090F8383013B915706A
:100670000C7038BD90F8364090F837300C7013701D
:1006800038BD0C701570BDE8384001F071BA00BF7C
:10069000002F6859084C010000C00100A4980020F8
:1006A0002C13011030660120601C002000B00110E6
:1006B00071060220700602202DE9F04F002199B04A
:1006C0004FF0FF3005F07EFC192005F033FB1926B2
:1006D000012747EC44600421304605F0DBFA002591
:1006E00040F612321023934C294625653046A56505
:1006F000E56522666365276505F0FCFAE36D8E4AC1
:100700006FF30F03D3658D498D4801F091F9FE22F7
:100710008C498D4B8D480D7005701A7001F072FC7C
:100720004AF644418A4802F07FFD4024054606907F
:1007300022460021284602F07FFE01343F2201219B
:10074000284602F079FE562CF2D14FF0000A44F20E
:100750004002804B804983F800A0804B0A8083F8D8
:1007600000A0FFF719FEFFF7DFFD4FF400437C4ABE
:10077000DFF824B2CDE90CAADFF82082794DDFF84A
:100780002092794F119310601093CDF838A0CDF8D6
:1007900028A0CDF80CB06D4B1B78002B40F0A38245
:1007A000724B1A78002A00F0A280714B1B78002B44
:1007B00000F09D806F4B0D991B780DEB010080F8C8
:1007C0004C304B1CDBB2032B28BF00239DF84C4060
:1007D0000D939DF84D309DF84E109C4294BF1E46DF
:1007E00026460491E1189C4288BF1C46049B19448C
:1007F000614B1B7880F850309DF850009DF851C037
:100800009DF852E000EB0C0373440793049B9E4257
:10081000B8BF1E46A342D4BFF6183619604594BF30
:1008200064460446604588BF60467445B8BF744658
:100830008645D4BF74442418079B891B1B1B012ABF
:10084000C9B2DBB200F0FC844C48007800284BD1E0
:10085000032A00F095854A484A4A06784FF400403A
:1008600004904FF48030127834024FEA022E07943D
:100870008A1A1099079C9B1BA1EB0E061199C6EBD7
:10088000022C091B049C1B02A4454FEA022240F3E0
:10089000DC84049CA3EB010CA445064440F3E084F3
:1008A0000144FA2402EB4202520004FB0622141215
:1008B000B0EB222F4FF0FA0203EB43034FEA43035E
:1008C00002FB0133D8BF241A1A12B0EB232F079B67
:1008D00004EB0E01D8BF121A9A1810910B122A4974
:1008E00011924B7613128B760023214A1370274AFC
:1008F00013788BB11378022B00F0EC83234B1B7819
:10090000032BDCB200F04E8400221146104606F0A4
:10091000EBFB00231D4A13701D4A98F80030127833
:100920001C499A42D1E9006400F0C180CDE9076416
:100930005BE000BF00800A4000900A4090F0002079
:10094000430B011089060220751C0020810602203D
:10095000999E3600830602207499002084060220A6
:10096000F492002038F60120B04E002088060220C4
:1009700090060220691C0020681C00208F060220BF
:10098000289E0020249E0020B09D00208206022088
:100990008B060220E04C00208D0602208A060220F1
:1009A00038F8012035F9130035F81340002880F29B
:1009B0000B81D7E9000159F82320904271F1000220
:1009C0007AD3013388F80030A24B1B78002B00F05B
:1009D000F180E2B20698C4F3003102F02DFD9E4A88
:1009E00098F80030127893425FD003990978002973
:1009F000D8D159F823A08B46D7E90001504571F1B1
:100A00000002C0F05B8235F91320591C5A4535F8B5
:100A1000134088F80010D7DB260AE4B2214630469E
:100A200001F09CFB8D4B1B68B3F1004F00F00C8173
:100A30008B4B894A1978127898F800300029D2D067
:100A4000F01FC0B2062840F2D480A6F10E00C0B25A
:100A5000062800F2AB8402210491042800F0CE8025
:100A6000012800F0A3820228BDD104997D487E4E62
:100A7000405C31680328D6F804C00B9100F0108365
:100A800004994FF0010EC90008460991774E0B9961
:100A9000934231507348049900F801E0744844547B
:100AA00009983044C0F804C09FD1DDE90764039B76
:100AB0001B78002B00F000824FF6FE736D4A12681F
:100AC0009A427FF468AEBDF93010BDF92800ADF848
:100AD0004810ADF84A0040F612320C1804F5803385
:100AE00002FB03F3644A5B14B2F90020C2B1634E07
:100AF000C2F5804C368816FB02F603FB0C63604E91
:100B00009B133688324412B2002AC0F22183B2F518
:100B1000804FC0F21E830022574E3280584E3280E2
:100B2000544A1360574B1B88FF2B05D8564A89B28D
:100B300041EA004142F82310524A01331380534BDB
:100B4000002118680AF00AF90646002800F0B8806B
:100B50004F4B1B78002B40F04B8300233268F0682A
:100B6000526804924A4A1370002800F01C84454AD7
:100B7000B2F800E0049A0EF1FF3E111F1A464248F7
:100B8000734550F8230003F1010CC0F283804860E4
:100B9000F068511C814280F08680049800EB82024C
:100BA0003948013150F8230042F8040FF0688842B8
:100BB000F6D878E0E1B2C4F3042001F0D9FA264A6D
:100BC00098F8003012780EE70133DBB2022988F87A
:100BD0000030C4F304202AD001297FF404AF182880
:100BE0007FF401AFE4B2A4F18001C9010C910A9134
:100BF000F9E60121042804917FF432AF04F01900D2
:100C0000112800F28280DFE810F0F700BA008000BF
:100C100080008000800080008000760076008000E8
:100C20008000800080008000800080009C001828E8
:100C3000E4B200F00982A4F180010A9CC9011928DC
:100C400008BF0C460A94CEE62146304601F090FAE1
:100C5000EEE600BF730602208B060220E44E002061
:100C60007906022058990020E04C0020004D002019
:100C700054990020701C0020661C00206E06022083
:100C8000641C00206C060220F8920020F4920020E0
:100C9000741C002041F8040FF068013282421FFAF0
:100CA0008CF3FFF46CAF744A1380744BB060314620
:100CB00018680AF049F80023714A13806E4A1380BD
:100CC000A41184EAE4736F4AA3EBE4739B0004FB72
:100CD00004F41360136803EBA41313606A4B1B78CE
:100CE000002B3FF45DAD6949694800F0A1FE002387
:100CF000654A137054E567480499405C012800F088
:100D0000FA820020634E0499705404F04904412C87
:100D100027D0492C7FF467AE5F4804995F4E405C52
:100D2000D6E90046012800F06782C90009910999B7
:100D30005B484450081846600320574C049960549F
:100D400051E60120534E049904F049047054534E67
:100D5000544896ED007B00EBC100412C80ED007BF8
:100D6000D7D14D480499405C022800F0C481042882
:100D700000F0C1810020484C0499605433E6454896
:100D80000499405C052800F0DD820728B9D10E46A1
:100D900042480168434850F83600081A0990414813
:100DA00000EBC60E3D48099ED0F804C0DEF80400F2
:100DB0006CEB0000162E70F10000A2D23A48049E9F
:100DC0009FED2B7B40F836100026324804998EEDBB
:100DD000007B46544FF002010498344E31540221F6
:100DE0000E910146324E305C324E70542E4800EB6C
:100DF000C100C0F804C088E726480499405C072871
:100E00007FF4F1AD2548274E014604680498D1F8D7
:100E100004E056F83000B4EB000C049806EBC00672
:100E200070686EEB0000BCF1160F70F10000BFF4AB
:100E3000DAAD04991C484FF0020C40F83140002410
:100E40001448CDF838C04454184C04F801C0184C6C
:100E5000605C184C6054144800EBC101C1F804E018
:100E600000200021C6E90001BDE500BFAFF300800E
:100E700000000000000000006A060220F49200203A
:100E80006C060220909D00208106022090F0002038
:100E9000430B01106099002058990020E04C00207D
:100EA000004D0020184D0020E84C002050990020F3
:100EB0005C99002038FC0120B246A346D7E9002304
:100EC000524573EB0B0380F0AA80A34B1B78002BD9
:100ED00032D0A249A24C0B682268981A4A6861680D
:100EE00062EB0101FB2871F1000180F0FA819C4C5A
:100EF000A168581AE16862EB0101FB2871F1000159
:100F000080F0E581964801695B1A416962EB010254
:100F1000FB2B72F1000280F0D381924B1B78002BE7
:100F200040F0C3818F4B5B78002B40F0B3818D4B39
:100F30009B78002B40F0A381D7E900018A4BC7E9D9
:100F400000AB1B78BAEB0000002B00F0818001F0B1
:100F5000FDF8864B864819681B3101F089F94FF678
:100F6000FE73844A12689A427FF415AC039B1B7887
:100F7000002B7FF4A8AD7C4B1B78002B5AD00122AC
:100F8000069815A902F06EFA7B4B1B78002B40F0F7
:100F90006E81159A794912A800910DF14A0101F06C
:100FA0002DF9BDF94810BDF94A0094E5744804993B
:100FB000405C05284FD006287FF415AD6748714E78
:100FC000D0F800C056F83160BCEB06060B966D4EAB
:100FD00006EBC10E41680B9EDEF80400099161EB3F
:100FE0000000162E70F10000BFF4FDAC04996648B5
:100FF0005B4E4454002446F831C04FF0020C604868
:10100000CDF838C04454574800F801C0099806EBA1
:10101000C101486000200021CEE90001E3E44FF661
:10102000FE73544A12689A427FF4B5AB4E4B1B785C
:10103000002BA4D10DF14A0112A801F0ADF8BDF9C1
:101040004810BDF94A0046E5803CE1010C91CAE434
:1010500001F068F87DE70E4640480146D0F800C030
:101060004848496850F83660BCEB06060996049E6D
:1010700000EBC60EDEF80400099E61EB0000162EA0
:1010800070F10000BFF4AFAC049E3E4840F836C09B
:101090003E48CEF8041084550720394CA055A2E4F0
:1010A0003B4E049956F831000B99081A04990F9099
:1010B00006EBC10040684FEAC1016CEB000E0F98CF
:1010C000099116287EF1000EC0F0B6804FF0010E97
:1010D0000846DBE400F04CFD04232E4A82F8383049
:1010E00040F60343D386FFF77BFA002211461046F1
:1010F00005F0FAFF08E41948254C049906681748DA
:1011000004EBC10C54F83140D0F804E0DCF80400E2
:10111000341B6EEB0000162C70F10000BFF42AAEF9
:1011200000240F4840F8316001201B4E0E9074548B
:101130000C4C6054194C605C134C6054084800EB34
:10114000C101C1F804E000200021CCE900014AE41B
:101150000022134E3280E3E479060220E04C0020A6
:10116000E84C002050990020730602206C1C0020DF
:10117000CB9D0020701C0020840602207499002062
:1011800060990020184D002038FC01205C99002057
:10119000004D0020A4980020589900205499002068
:1011A000661C00200122202683490DF1540E91F87F
:1011B0003830DFF840C203F0030313FB04247F4AF6
:1011C00003EB430307CA8EE8070033446B4493F8EC
:1011D0003430794981F83830DB003EF804209E40F5
:1011E000774BCA865E616046A0F10100FCD17AE7C8
:1011F000012009F0EDFBB0E4724850F83100201AEC
:101200000B90704800EBC10EDEF804004FEAC101FC
:1012100066EB000C0B98099116287CF1000CBFF4CA
:1012200086AD6848049940F831400220664CCEF8FB
:1012300004606054FFF7D7BB4FF0040E084625E466
:10124000624A51769376FFF74FBBA6EB020CA4459A
:10125000049CA3EB010CC8BF1218A4453FF720ABB8
:10126000A1EB030CA445C8BF1B18FFF71ABB5849D4
:101270004A780978520102EB411215928AE6554BE1
:10128000022099780E9B803943EA012109B200F0CF
:1012900079FF51E64F4B012059780E9B803943EA84
:1012A000012109B200F06EFF41E64A4B0020197897
:1012B0000E9B803943EA012109B200F063FF31E659
:1012C0000021454B0220997000F05CFF25E60021CB
:1012D000414B0120597000F055FF404AD2E90032DD
:1012E00010E600213C4B0846197000F04BFF3B4ACA
:1012F000D2E90032FBE53A4E3848D0F800E056F823
:10130000310006EBC101BEEB00000B9033480B9E91
:10131000D0F804C0486809916CEB0000872E70F18A
:101320000000BFF4EEAC2E4E0499BEF1040046F866
:10133000310009994CF1FF3048600520294E04998D
:101340007054E2E425480E4601682548099101469B
:1013500050F83600099EB6EB000C0E4604991F4863
:1013600006EBC1067668406860EB0606BCF1160F16
:1013700076F10006BFF4C5AC06201A4E7054C4E4E2
:101380004FF4804204924CF24002174C40262280D7
:10139000164C4FF4004022804FF48042964607924C
:1013A0003246FFF765BA124B18807EE400213046C2
:1013B0000491FFF752BB00BFA498002000E000108A
:1013C00000002050004D002058990020B09D0020C2
:1013D0007499002038FC012050990020E04C002036
:1013E000184D002060990020289E0020249E002097
:1013F0006A06022020A1070008B50F2005F052FE62
:10140000FFF7A6F8FEF716FFFEF730FF01220521D1
:10141000054805F03BFD054809F026F80122044B7C
:101420001A60FEF7EDFF00BF002F6859B9060010E3
:1014300000800640030612D4B54B1A7872B170B51D
:10144000B44CDFF808C3217882B04B1CDBB2012B0F
:1014500023700CF8010008D802B070BD704700225C
:10146000AB49AC4B08701A70704702F0F002902A3A
:101470009CF8005007D0802A00F0D1800023A54AB4
:10148000137002B070BD9CF80130D3B9A24B1A782A
:10149000AA4200F008815A78AA4200F0E9809A78BE
:1014A000AA42EBD14FF0FF0E9C489D4A017892F87A
:1014B00000C04A1CD2B2944583F802E040F0C880D4
:1014C000FEE707EE905ADFED976AF8EE677AB2EE24
:1014D000087A77EEE67A9449C7EE877A0878934BD4
:1014E000421CD2B2032A28BF00221B5C0A700446A9
:1014F00017EE901A4FF08040019306F011FE9FED19
:101500008C6A07EE900A8B4ADFED8B6A92ED007AC7
:1015100067EE867AB8EE477A67EEA67AC7EE876AF4
:10152000F5EEC06AF1EE10FA019B00F19E80DFED4E
:10153000837AF4EEE76AF1EE10FAB6EE007A77FEFF
:10154000A67A77EE877AFCEEE77A17EE901A5FFAC2
:1015500081FCC1F30721724A6F4892F800E06F4A9C
:1015600005551278501CC0B27045064600D1FEE702
:1015700073480468180200F4F8504CEA000C7148F3
:10158000254640F8224070485C1C20F812C002F149
:10159000020C5FFA8CFCE6453DD0240204F4F854BA
:1015A000214320F81610674941F82650D11CCCB2CF
:1015B000A64503F1050131D0090201F4F85141F0CB
:1015C000090120F81C105F4941F82C5002F1040C6D
:1015D0005FFA8CFCE64503F106011ED0090201F416
:1015E000F85141F0F301053220F81410D2B25549F8
:1015F000964541F8245003F104030DD051491B02D4
:1016000041F82C5003F4F853444943F021030A7085
:1016100020F81C3032E7FEE7FEE7FEE7FEE73E4B30
:101620001A78AA4200F094805A78AA4256D09A7842
:10163000AA427FF423AF4FF0FF0E3848384A0178B2
:1016400092F800C04A1CD2B2944583F802E00BD055
:1016500002704FF491523A483A4B006843F8210027
:10166000394B23F8112009E7FEE700218C4672E789
:101670004FF0FF0E29482A4A017892F800C04A1C10
:10168000D2B2944583F801E03FF41AAF02704FF4F0
:1016900032602B4AD2F800C02A4A42F821C02A4AB6
:1016A00022F81100FBE64FF0FF0E1C481C4A01789F
:1016B00092F800C04A1CD2B2944583F800E03FF48F
:1016C000FFAE02704FF484601D4AD2F800C01D4A7C
:1016D00042F821C01C4A22F81100DCE64FF0FF0E50
:1016E0000E480F4A017892F800C04A1CD2B29445C5
:1016F00083F801E0B8D002704FF43260104AD2F89B
:1017000000C0104A42F821C00F4A22F811008EE7AB
:101710008C06022086060220781C00208B06022000
:101720008A06022000008A4287060220480B011028
:101730000000DC43901C00200000804B00FF7F472E
:10174000E04C002038F8012038F601208C9D002064
:101750004FF0FF0E0C480D4A017892F800C04A1C69
:10176000D2B2944583F800E03FF47EAF02704FF4AC
:101770008460074AD2F800C0064A42F821C0064AEF
:1017800022F8110050E700BF8B0602208A060220D3
:10179000E04C002038F8012038F6012010B50BF09D
:1017A00047F8002108460AF03FFD002004F0C2FA85
:1017B000002242EC44200121104604F089FA0B4932
:1017C0000B4B0A781878531CDBB2984200D1FEE725
:1017D00041F60F00DFF824C0064C0B70DCF8003037
:1017E00044F82230044B23F8120010BD8B0602206F
:1017F0008A06022038F8012038F60120E04C00204B
:10180000F0B500214FF0FF3085B009F0CBFD04E0CA
:10181000002003A90AF078FB88B9002108460AF0E5
:101820005FFB0028F4D14FF05045214C6B682678BF
:1018300003F00103012E0FD0237005B0F0BD9DF819
:101840000D00FFF7F7FD9DF80E00FFF7F3FD9DF883
:101850000F00FFF7EFFDE0E7002BEDD13020002176
:10186000019305F059F8019B1F466A68202012F089
:10187000010F06FA03F242EA0702D2B24FF000016A
:1018800018BF1746019305F047F8019B0133082B59
:10189000EBD10021202005F03FF84FF050435B686A
:1018A000384603F001032370FFF7C4FD05B0F0BD17
:1018B000761C00201D4A38B510681D4B9B6A90B3FA
:1018C000181A2FD01B4913600C680023A0FB0401D9
:1018D000194A0BF081FD28B34AF64445174ADFF850
:1018E00064E013684FF6FF7C1B18136053681449BB
:1018F00043F100035360DEF80030002205FB0030A6
:10190000CEF8000009E00B680122634508BF4FF6DE
:10191000FE73A0EB040008BF0B608442F3D30AB14E
:10192000CEF8000038BD136038BD00BF809D002098
:1019300000000B40901C002040420F00E04C0020B3
:10194000701C00203CFC012000487047B80B0110BF
:1019500000487047500B011058B940F209424FF44B
:101960004173DFF864C0ACF802201748ACF80030CF
:10197000704703281BD8154B53F820100A78F2B192
:10198000DFF844C00023604602E001331F2B10D073
:1019900020F8022F11F8012F002AF6D10233DBB212
:1019A0005B0043F440730848ACF8003070470020F7
:1019B00070474FF450730448ACF80030704740F261
:1019C0000233DFF804C0D0E7E09000207C1C002048
:1019D000002370B51D46154C01F00806227801F071
:1019E0000701B1B1530013F0FF0301F1FF3102D041
:1019F000C2F3C71208E003685A1E026013F8013CE4
:101A0000DA095B000133DBB242EA45051A460123DD
:101A1000E7E703B1227036B103685A1E026013F87B
:101A2000013C43EA0525A8B270BD00BF7F06022035
:101A30002DE9F74F431E10F8012C0193494B4A4FF3
:101A40001A704A4B8A4600259846B94615F00F0F82
:101A500008BF0126032123F8026B01A80093FFF7BA
:101A6000B7FF0121044601A8FFF7B2FF012244EAB3
:101A7000C004154407F8014B342D02FA04F4009B0E
:101A80002644E3D11546012634460AF1FF37BA460B
:101A90002EB1019B5A1E019213F8013C01E017F888
:101AA0000B30013C2A46002C46EA450507F801396F
:101AB000EDB201DD1546EAE7012101A8FFF788FF35
:101AC000C6B2012EDFD00024012101A8FFF780FF5C
:101AD00008B90134F8E7102C40D0112C0BD1019B30
:101AE000BA4613F8012C13F8024C991E01260191F5
:101AF00044EA0224CDE719F8041001A838F814A02C
:101B0000FFF766FF05F00301012900EB0A040AD084
:101B1000012C0ED0022C12D104210DEB0100FFF795
:101B200057FF203011E001A8FFF752FF0028EFD047
:101B3000ADE7022101A8FFF74BFF303005E004219B
:101B40000DEB0100FFF744FF103038F810B019F822
:101B5000001001A8FFF73CFF834498E7504603B00C
:101B6000BDE8F08F7F06022064970020FC960020DD
:101B70003C22002110B511480BF0B0F940F60340AB
:101B800040F20E51072210230C4CDFF834C0A08025
:101B9000A4F8071034204AF6372184F8362084F858
:101BA000383040F60122A02344F804CC84F8250004
:101BB000A4F82710628584F82C3010BDA898002066
:101BC000010C010E00222DE9F0474A4C4A4B2578C2
:101BD00086B0217A83F8422083F82020002D40F03F
:101BE000B081A9420CBF032002200321434A444E86
:101BF00083F8430083F8211006AB07CA03E9070006
:101C00002946306802F0FAFC23783068022B05BFC1
:101C10004FF0FF3163780021994002F029FD394DE2
:101C2000217A286801B1012102F0E8FC237A2868B2
:101C3000022B05BF4FF0FF31637A0021994002F07B
:101C400017FD314F94F83B10DFF8CC80A7FB013C27
:101C50000CF0FE0000EB5C00091AC9B20DEB81012B
:101C6000C968DFF8B8A007EE901AF8EE677ADFF8D7
:101C7000B090C8F80010CDF804A0CDF8009017EE91
:101C8000901A0122214B306802F0A6FDCDF804A085
:101C9000CDF80090D8ED007AF8EE677A012217EEC1
:101CA000901A1A4B286802F097FDA27A1849A7FBF0
:101CB00002739B0803EB4303A2EB4303032ADBB24B
:101CC00051F8233094BF00210121DFF858801148DA
:101CD000C8F800300170217A33B9032924D0037089
:101CE0004FF00043C8F8003003291DD9C1F10600A8
:101CF0001BE000BFA4980020B09D0020201301101D
:101D00004CFC012050FC0120ABAAAAAA00442C479D
:101D10001401002078060220901C0020EC51783F2E
:101D2000000080BFE44E002000209F4B9F4F1870A2
:101D30003B689A4204D0286802F079FCA37A217AA1
:101D400000209B4A3B6094F83C301070994F9A4AAF
:101D500003F0400C032903F00F03137087F800C051
:101D6000E27800F00A8194F80CC0E77ACCF10E0317
:101D700002FB03F11CFB02F217FB0CFC03FB07F751
:101D80008E4B19608E4B1A608E4BC3F800C08E4B81
:101D90001F6094F83A00062800F2E7804FF4807341
:101DA000C0F107004001C0F5807003FB01F10CFB9E
:101DB00003F302FB00FC07FB00F294F83D7083483C
:101DC000003F18BF01274FEA0C2C09024FEA5C0CB8
:101DD000A0FB0CEC80FB018E1B0212028E44C91783
:101DE000C1EBEE1180FB038E80FB0280DFF81082D6
:101DF0004FEA9C1CC8F8001075499E441044DB173C
:101E0000D217C1F800C0C3EBEE137249C2EBE01E5B
:101E100094F830200B600A326F4B306802EB82027C
:101E2000C3F800E002EB82026C4B94F82F10920092
:101E300050301F7001F0B6FD94F8302028680A3247
:101E400002EB820202EB8202920094F82F105030D3
:101E500001F0A8FD94F82E10306801F0010102F0A5
:101E6000B7FC94F82E10286801F0010102F0B0FCD4
:101E700094F8292094F828100A3202EB820202EB2F
:101E8000820230689200890002F0F0F994F829206B
:101E900094F828100A3202EB820202EB82022868D0
:101EA0009200890002F0E2F9022206214C4804F077
:101EB000EDFF4C4B1846A0F10100FCD194F82C30FA
:101EC00094F82A20484F0A3394F82D1007EB023774
:101ED00003EB830394F82B2003EB830330689B0010
:101EE00000919200394602F013FA94F82C3094F8DD
:101EF0002B200A33286803EB830394F82D5003EB5F
:101F0000830339469B000095920002F001FA0122FA
:101F10000521334804F0BAFF344D94F82720344BA0
:101F2000344E1A700FCE0FC50FCE0FC50FCE0FC592
:101F300096E80F0085E80F0006B0BDE8F047FEF711
:101F400021BA00290CBF0320022002212A4E2B4A6D
:101F500083F8430083F8211006AB07CA03E90700A2
:101F60000121306802F04AFB4EE6072818D04301F1
:101F7000C3F5F0734FF4807017E74FF08043C2EB66
:101F8000C202C8F800300D4B510019600C4B0746D7
:101F900019600D4B0A4618600A4B84461860F8E633
:101FA0004FF48070034600E7730602208C1C00206B
:101FB000750602207606022074060220004F0020DB
:101FC000104F0020044F0020144F00209DC0099C9A
:101FD000084F0020FC4E00200C4F00207906022004
:101FE000002F6859084C010000D00110E49800202F
:101FF00072060220A49800204CFC0120201301103E
:10200000F84E0020F0B53D4985B03D48FFF710FD82
:102010004FF4307006F060FC05463A4C02F0A6FA28
:10202000394F01212846256002F0E8FA206802F0C5
:10203000FEFAD7ED007AF8EE677A344E344D354B20
:1020400017EE901A0122206800950196039302F082
:10205000C3FB4FF4307006F03FFC029002F086FAAA
:10206000029A2D4C10460121226002F0C7FA206826
:1020700002F0DDFAD7ED007AF8EE677A0095019666
:1020800017EE901A039B0122206802F0A5FB234A59
:10209000234B9168D2E90040CD43D168E443C0436B
:1020A000C943C3E90040D960D2E90401C443C8432D
:1020B00091699D60CD43D169C3E90440C943D961A9
:1020C000D2E90801C443C843916A9D61CD43D16AF6
:1020D000C3E90840C943D962D2E90C01C443C843EB
:1020E000D2E90E12C943D243C3E90C40C3E90E1230
:1020F0009D6205B0BDE8F040FFF764BD30F60120F9
:102100001F1301104CFC0120901C0020EC51783F63
:10211000000080BF00442C4750FC0120A498002000
:10212000E4980020014600B5064B83B01868019181
:1021300002F0A2FD044B0199186803B05DF804EBAE
:1021400002F09ABD4CFC012050FC0120024B0146DC
:10215000186802F091BD00BF4CFC012003460A46FE
:1021600002490868194602F0AFBA00BF4CFC0120D2
:1021700003460A4602490868194602F0A5BA00BF9C
:1021800050FC012003460A4602490868194602F03D
:1021900075BA00BF4CFC012030B5124B83B0054628
:1021A0001868019102F070FA0F4B0446186802F0AB
:1021B0006BFA0E4B0E4AD3F800C00E4BD2F800E07B
:1021C0001B680D4A00FB03F30EFB00F012680CFBCA
:1021D000043302FB040001991B14001428800B80B7
:1021E00003B030BD4CFC012050FC0120084F002002
:1021F000FC4E00200C4F0020F84E002030B5164B4E
:1022000083B005461868CDE9002102F03DFA134B72
:10221000134CD3F800E0134BD4F800C0124C009AD2
:102220001B6824680EFB02FE00FB03F30CFB02FCA0
:1022300004FB00F203EB4E030C481B1402EB4C02B0
:1022400012148342B8BF03468242B8BF02460199C6
:102250002B800A8003B030BD4CFC0120FC4E0020D6
:102260000C4F0020F84E0020084F00200180FFFF97
:1022700010B50C46054A0146106802F015FA044BE9
:102280002146BDE81040186802F00EBA4CFC01204F
:1022900050FC01202DE9F04701F0E003802B82B0D3
:1022A0005FFA82FC00F004827DDC402B00F0D881D4
:1022B00000F38081002B00F04A81B84B01F01F0130
:1022C0005B56002B6CDB4FF0B00EB54E02F00F05E5
:1022D000755D5C1001950CF020070CF040050EFBBD
:1022E00004FC03F00103C2F3001142F3C01603EB38
:1022F00083020CEB021200EB020E81F001018EF85A
:102300004C504900019DC9B28EF80C1084448EF8DF
:102310002970CEF848608EF80F50A046DCF8A44033
:1023200005FB04F4CEF814409CF8ACC04CFA01F163
:102330009EF80EC0614533D08EF80E1082580A44C4
:102340004D2A40F24E824FF0680C4FF00009954E36
:10235000954FB0224FF0000E02FB08F269F3070E12
:102360006CF30F2E03EB830C02EB0C1C5B428444DA
:1023700003F050031344DCF8042003440A44B05C27
:10238000BA5C60F3174E62F31F6EC3F83CE0DCF8F2
:1023900008300B44F25CFB5C8CF840208CF8413038
:1023A00002B0BDE8F087C02B00F0B581E02B00F053
:1023B000D980A02BF4D1BD2900F0268201F00F03B3
:1023C000082BEDDC4FF0B00E0EFB030EDEF8A04044
:1023D000C906254600F1D18104F4F85141EA0C0107
:1023E0008E46AE45DCD0714AC1F3090C02FB0CFCF1
:1023F0006F4C8A114FEA9C2C89124FEA8C1CC1F158
:102400000701A25C2CFA01F4B02101FB03F54FEAAD
:102410005E2CCEF300210CF00E060E434119C1E9EB
:102420002942C1F8A0E090F874E6A0461EF0400FE3
:1024300018BFB44691F80FE081F8ACC004FB0EFE63
:1024400091F85D40C1F814E091F80DE022FA0EFE1B
:10245000E240CC6AA644CC6FC1F830E02244C1F817
:1024600080200A7B91F80EE04CFA02F272452CD0E3
:102470008A7350F805E09644BEF14D0F00F26F826A
:10248000484C494D264614F80E402F46A24615F8F2
:102490000E40A14649684FF0B00E54180021354651
:1024A0006AF30701365D69F30F213C5D66F317415E
:1024B00064F31F610EFB0304E163A1680A44A95C95
:1024C000BA5C84F8401084F84120B02101FB03017C
:1024D00091F85F2008FB02F24A6691F85C204CFA02
:1024E00002F291F85EC062453FF45AAFD1F850C095
:1024F00081F85E2002EB0C014D2900F22982294C63
:10250000294D26462F4614F801E015F801C0B021E8
:1025100001FB03F300216EF307016CF30F2100EBC5
:10252000030CDCF85400DCF85830104416F800E0D6
:10253000385C6EF3174160F31F611A44BB5CCCF842
:102540008C10B15C8CF891308CF8901028E701F079
:102550001F01012900F04E8108297FF421AF80F886
:1025600074261DE790F86036002B3FF419AF0B4B33
:1025700001F01F015B56002BFFF612AFB0215A107D
:1025800001FB02F203F0010303EB830302EB0313ED
:102590000CF0030C1844A0F84EC001E77C040020A6
:1025A000A4020020B4020020140300209A2001009D
:1025B000FC030020602B7FF4F3AEC84B01F01F0139
:1025C00059560029FFF6ECAE4FF0B00E4FEA2C132F
:1025D0009D001035002B18BF2B464C100EFB04FE3F
:1025E00001F0010101EB81050EEB051E40F80E30F4
:1025F0008644A0469EF80E4004EB030EBEF14D0F3C
:10260000254640F2AD804FF0680A4FF00009B44E05
:10261000B44FB02308FB03F301EB810E03EB0E1361
:10262000034412F00F0283F83DA083F83C9005D0DC
:102630004FEA8C0202F03C0210321544B02303FB37
:1026400008F301EB810116F805E017F805C003EB6C
:10265000011303445A6083F83EE083F83FC09FE6CD
:102660009E4B01F01F015B56002BFFF699AE5FEA0F
:10267000AC1E4FEA630203F001036BD11F244FF03D
:102680001F0E4FEA8C0C5FFA8CF14FF0B00C0CFB74
:1026900002F203EB830302EB0313034483F80DE020
:1026A0000244D962D2F8A820E2400A441A6377E6CD
:1026B0008A4B01F01F0159560029FFF671AE4FF009
:1026C000B00E4B100EFB03F301F0010101EB810191
:1026D00003EB011303444FEA2C104FEA8C0C0CF06F
:1026E0003C0C12F00F020CF1100C18BF6246DFF820
:1026F00000E2997B1EF80000DFF8E8C14000986313
:1027000077481144405C1CF801109A6083F840003F
:1027100083F8411044E601F00F0108293FF740AE6D
:1027200012F00E0308BF9C464FF0B00303FB0103F9
:102730001CBFCCF3420C0CF1070C02F0010283F831
:1027400018C083F82820B2B9674AB02303FB0101FF
:10275000CA6125E6CEF1030E5FFA8EFE744690E75D
:102760005F4B604C1E4613F80E302746994614F80E
:102770000E309A464DE75D4AE7E74FEA0C2C0CF421
:10278000F851DEF844C05FFA84FE41EA0E0E92066C
:10279000714640F1AF80BCF1000F08D1B0224FF07C
:1027A000040402FB0302C2F810C082F82A404CF075
:1027B00001024FF0B00C0CFB030CCCF84420DCF809
:1027C00094202AB94FF00404CCF860208CF87A40A9
:1027D0004FF0B00C0CFB030C42F00102CCF894203B
:1027E000FFE53F4C3F4D2646A45C2F46A14615F819
:1027F00002C0AEE590F87036DC077FF5D1AD02F08F
:10280000200280F86026CBE54FEAEC0303F00803D2
:102810002CF07F0180F842361CF0200F0CF03F03B3
:1028200080F8403680F84116D0F8643400F09E807D
:10283000D10640F1338123B90421C0F8303480F847
:102840004A14D0F8B41443F00203C0F8643421B938
:102850000423C0F8801480F89A3441F00201C0F8D3
:10286000B414D707D0F8143540F1068123B90421F8
:10287000C0F8E03480F8FA1443F00203C0F81435CD
:102880001607D0F8643540F1E58023B90421C0F87B
:10289000303580F84A1543F00203C0F86435550717
:1028A000D0F8C43540F1C48023B90421C0F8903574
:1028B00080F8AA1543F00203C0F8C4359407D0F895
:1028C000143640F1B18023B90422C0F8E03580F815
:1028D000FA2543F00203C0F8143661E57C040020B9
:1028E000B402002014030020F89D0020F49D002075
:1028F000EC030020BCF1000F0FD02CF001024FF0D0
:10290000B00C0CFB030CCCF8442032B99CF82A2004
:10291000012A84BF01228CF82A20B02202FB030284
:10292000D2F894C0BCF1000F3FF45BAD2CF0010C69
:10293000C2F894C0BCF1000F7FF453AD92F87AC096
:10294000BCF1010F84BF4FF0010C82F87AC048E55A
:102950004FF0680C4FF0000E614E624FD7E54FF01C
:1029600068094FF0000A5E4E5E4F93E55BB123F0BD
:102970000203C0F8643433B990F84A34012B84BFA1
:10298000012380F84A34D0F8B4345BB123F0020359
:10299000C0F8B43433B990F89A34012B84BF0123C2
:1029A00080F89A34D0F814355BB123F00203C0F8F4
:1029B000143533B990F8FA34012B84BF012380F821
:1029C000FA34D0F864355BB123F00203C0F8643503
:1029D00033B990F84A35012B84BF012380F84A357A
:1029E000D0F8C4355BB123F00203C0F8C43533B965
:1029F00090F8AA35012B84BF012380F8AA35D0F8BE
:102A00001436002B3FF4CCAC23F00203C0F814368C
:102A1000002B7FF4C5AC90F8FA35012B7FF6C0ACE3
:102A2000012380F8FA35BBE4002B3FF4B9ACEBE7A7
:102A3000002B3FF443AF23F00203C0F8C435002B52
:102A40007FF43CAF90F8AA35012B84BF012380F8B6
:102A5000AA3533E7002B3FF422AF23F00203C0F87E
:102A60006435002B7FF41BAF90F84A35012B84BFEF
:102A7000012380F84A3512E7002B3FF401AF23F021
:102A80000203C0F81435002B7FF4FAAE90F8FA3444
:102A9000012B84BF012380F8FA34F1E65BB123F007
:102AA0000203C0F8643433B990F84A34012B84BF70
:102AB000012380F84A34D0F8B434002B3FF4D1AE6F
:102AC00023F00203C0F8B434002B7FF4CAAE90F8B0
:102AD0009A34012B84BF012380F89A34C1E600BFE9
:102AE000B40200201403002038B50546002301205D
:102AF00095F87226C5F8303622F07F011206C5F827
:102B00003436C5F8540685F8743685F8721605D53E
:102B100095F973269A42A8BF85F8723695F87036F3
:102B2000FF24DB0744BF002385F8603621460022DE
:102B30002846013CFFF7AEFB1F2CF7D1002340F2E3
:102B4000FF11474AA5F84E30EA61EA66C5F8CC2085
:102B5000C5F81C21C5F87C21C5F8CC21C5F82C226C
:102B6000C5F87C2285F82A306963A5F89E3085F87F
:102B70007A30C5F88410A5F8FE3085F8DA30C5F84B
:102B8000E410A5F84E3185F82A31C5F83411A5F8BE
:102B9000AE3185F88A31C5F89411A5F8FE3185F873
:102BA000DA31C5F8E411A5F85E3285F83A32C5F895
:102BB0004412A5F8AE3285F88A32C5F89412A5F809
:102BC0000E3385F8EA32C5F8F412C5F8DC22A5F810
:102BD0005E3385F83A33C5F84413C5F82C23A5F8BD
:102BE000BE3385F89A33C5F8A413C5F88C23A5F82D
:102BF0000E3485F8EA33C5F8F413C5F8DC23A5F8DC
:102C00006E3485F84A34C5F85414C5F83C24A5F848
:102C1000BE3485F89A34C5F8A414C5F88C24A5F8F8
:102C20001E3585F8FA34C5F80415C5F8EC24A5F866
:102C30006E3585F84A35C5F85415C5F83C25A5F814
:102C4000CE3585F8AA3585F8FA35C5F8B415C5F836
:102C50009C25A5F81E36C5F80416C5F8EC2538BD28
:102C6000F49D002000234F494F4AF0B5456A4F4C70
:102C7000C66912680B60D0E90C7107EB010C816C1E
:102C8000076A2360056202EA010E3168F444BCF170
:102C9000BF0F01EB050EC6F800E0436227D8037EA4
:102CA000002B59D02F4407FA03F503696FF30F0384
:102CB0002B44B0F84E501B14022D6CD0032D63D062
:102CC000012DC3F3090649D0394B33F8163003EB15
:102CD0000C13B3F5406F43D2364DC3F3470635F9B5
:102CE00016505E0A3541DE0700D56D424562D0E9D7
:102CF00020352B44D0F898502A401344BF2B2AD8B3
:102D0000026E2568B0F89E406FF30F0202EB054299
:102D1000022C4FEA22422AD0032C2ED0012CC2F3DF
:102D2000090020D0224A32F8102002EB0313B3F539
:102D3000406F1AD21F4AC3F3470032F910205812CD
:102D4000DB0742FA00F200D552421B48154B1A60CD
:102D5000036813440360F0BD1D46A6E79B05B3D589
:102D600000254562C3E79405DCD50022EDE7104855
:102D7000C2F3080230F81220D7E7D105F5D40C4889
:102D8000D2B230F81220D0E7DF05E9D4084DDBB22B
:102D900035F813309BE7064DC3F3080335F81330BD
:102DA00095E700BF7C9D0020DC4E0020F89D0020B0
:102DB0005CFC012060040220F49D0020F0B5002599
:102DC000D0F85024D0F85464BD4B02EB060E1B68BB
:102DD000D0F868248C461A40BA4CBB49964490F807
:102DE0004864D0F84424D0F8407425600D60C0F8E1
:102DF0004024002E40F05B81164622600024BEF184
:102E0000BF0FC0F844442ED890F83844002C40F04E
:102E10009181D0F830246FF30F022244B0F86E4451
:102E20001214022C00F0C681032C00F0E781012C63
:102E3000C2F3090500F0A481A44A32F8152002EB80
:102E40000E12B2F5406F80F09E81A14CC2F347058F
:102E500034F91540D7074FEA522544FA05F400D556
:102E60006442C0F84444D0F8A024D0F8A44402EB53
:102E7000040ED0F8B8241A409644BEF1BF0F2ED8E5
:102E8000D0F88024B0F8BE046FF30F0202EB0642C4
:102E900002284FEA224200F09381032800F0B58116
:102EA0000128C2F3090400F07781884A32F814003F
:102EB00000EB0E10B0F5406F80F07181844AC0F3D2
:102EC000470532F9152044122241C00748BFC2EB22
:102ED000C27252007F480A600168114401607E4A54
:102EE0001068D0E90C210A44816C19400A447B49DE
:102EF000BF2AD1F800E035D80469A10C81EAD45189
:102F000041EAD441CF0740F1EF80BCF1000F40F01F
:102F10004D8134254FF40D74B0F84E10022900F0A5
:102F2000FE80032900F0FB80012900F00181674940
:102F300031F8141001EB0212B2F5406F80F0F88006
:102F40006349C2F3470431F914105412D60741FA09
:102F500004F14ABFC1EBC1724A0052005D4C2168C6
:102F6000114421605E4A1468D4E90C211144A26C1A
:102F70001A401144BF2931D8C27C12F0010240F03E
:102F800098804FF4807615463746B4F84E40BCF131
:102F9000000F04BF3D463246022C00F02981032C6D
:102FA00000F02181012C00F0FC80484C34F8122004
:102FB00002EB0111B1F5406F80F0F680444AC1F395
:102FC000470532F915204C122241C90748BFC2EB10
:102FD000C27252003F4C216811442160414A11687D
:102FE000D1E90C2422448C6C03EA040C6244BF2A0D
:102FF00027D8B1F84E40B1F91210022C00F0E6804B
:10300000032C00F0E980012CC1F3090500F0BF801A
:103010002E4931F8151001EB0211B1F5406F80F027
:10302000B9802B4AC1F3470532F915204C122241D1
:10303000CD0748BFC2EBC2725200264C2168114432
:103040002160DEE90C211144DEF848201A400A44D0
:10305000BF2A2BD80169DEF810008B0C83EAD1530C
:1030600043EAD143DC074FEAD04383EA50534CBFD5
:103070004FF440744FF4807413F00103BEF84E1007
:103080005CD0022963D021F00201012909D04FF45C
:1030900040740E4B33F8143003EB0212B2F5406F5C
:1030A0005DD300230B490A681A440A60F0BD2E461E
:1030B000A4E64FF400764FF440723746154664E7B5
:1030C000DC4E0020F89D00207C9D00205CFC01204F
:1030D00060040220F49D0020E84E0020F44E002001
:1030E000EC4E0020F04E0020DEF81040E10C81EAAA
:1030F0005451C9073FF509AFB0F84E10BCF1000FAD
:1031000014BF3424D02401293FF411AF00293FF427
:103110000EAF022902D003297FF409AF25463E49AC
:1031200031F8151001EB0212B2F5406FFFF408AF51
:10313000002213E7BA1802FA04F46AE6022906D05C
:10314000032918D00129A4D1B4F5807F13D1324BC3
:10315000B3F8003203EB0212B2F5406FA1D22F4B4D
:10316000C2F3470133F9113051120B41D00748BF68
:10317000C3EBC3735B002A490A681A440A60F0BDB6
:1031800097057FF559AE0024C0F844446BE68F05DF
:103190007FF53EAF002250E795057FF586AE002211
:1031A00098E6AD057FF501AF002213E7D0254FF477
:1031B0003474B1E6184CC2F3080234F812203EE62B
:1031C0001548C2F3080230F8120071E6124CC1F340
:1031D000080134F811101EE7CE05DBD40E4CC9B23D
:1031E00034F8111017E7EC05DED40B4A1288DFE63D
:1031F000094AC5F3080532F81520D9E6D405C2D42A
:10320000054CD2B234F8122019E6D405C7D40248CE
:10321000D2B230F812004BE65CFC012060040220C0
:10322000F49D0020000000002DE9F04F2DED068BED
:1032300000259FED739AF4EE008A9FED728A0C468A
:1032400083B0714E0090013507EE905AF8EEE77AA0
:1032500067EE897A67EEA87A4FF0804017EE901AF1
:1032600004F05EFF07EE100AC8EE077AFBFE677AED
:10327000FDEEE77A17EE902A5311D20648BF0133CC
:103280005B00B5F5807F26F8023FDCD15F4D0194ED
:103290009FED5F8A0FF26019D9E90089BFEE00AA9D
:1032A000F2EE009A9FED5B9ADFED5B8A00265B4FA2
:1032B00005F2FE7AAC1E3DE0F7EE007AC7EE887AA2
:1032C00017EE900A05F034F807EE100A27EE297A77
:1032D000C7EE097A67EEA87A77EEA77AB5EEC08ACC
:1032E000FDEEE77AF1EE10FA17EE902AACBF01235B
:1032F000002302F0010C04F1020B0CEB620283F0DC
:103300000103601D03EB4203DA45A0EB0500638077
:1033100018D004F0B1F942464B4604F02BF932467E
:103320003B4604F027F904F099F905F069F95C4689
:1033300008EE100AB5EEC08AF1EE10FABCDCCAEE57
:10334000087ABDE740F2846200213548019C09F00B
:10335000C5FD012200990346C0F8781680F8702652
:10336000C0F87C46002C3FD007EE901ADFED2D4AC6
:10337000F8EE676A07EE904A86EEA45AF8EE675AAE
:103380009FED296AC5EE256A9FED287ADFED1D7A4B
:1033900026EE866A26EE877A66EEA77ABCEEC66AC5
:1033A000BCEEC77AFCEEE77A16EE104A17EE101A5A
:1033B00017EE902AC3F848464FF480341C4DC3F8EA
:1033C0005016A5F5D060C5ED006AC3F85C26C3F8B9
:1033D0003826C3F83C46FFF787FBA5F5D06003B05D
:1033E000BDEC068BBDE8F08F22462146DFED116A69
:1033F000E0E700BFAFF30080182D4454FB210940E3
:103400000000003D000080475E0402205CFC0120BB
:10341000C60F493B1872313F000000420000503F88
:103420009025002000009042000080480000804667
:10343000102C002000000000C90705D480F8712678
:1034400090F87206C009704700B583B090F8711605
:103450000190FEF71FFF019B93F87206C00903B0AD
:1034600000BD00BF2DE9F04FB74B90F840461D68F6
:103470008BB0854211D0B54FB54E00F59A6CB54D65
:10348000C7F800C000F5A46718603760B24B00F5BC
:10349000B0662E6000F5BA651D60002A40F3D98140
:1034A00083464FF0000904F02003039300F1B003BA
:1034B000089300F5B073079300F50473069300F5C5
:1034C0003073059300F55C7304930992A1F104082D
:1034D0000023A24A9BF841161360DBF84436DBF860
:1034E00048269F4C1344B3F1524F28BF03F1385381
:1034F0009C4ACBF844361B0ED35C58469A080029E8
:1035000008BF1346984A994D1360DBF84C36DBF838
:10351000502613449BF84226CBF84C36C3F3026383
:1035200043EA020A924BC3F800A0FFF79BFB236813
:1035300008982B60FFF796FB236807986B60FFF7EE
:1035400091FB23680698AB60FFF78CFB2368059816
:10355000EB60FFF787FB236804982B61FFF782FB82
:1035600023686B61039B002B40F076810BF5846030
:10357000FFF778FB23680BF59A60AB61FFF772FBEE
:1035800023680BF5B060EB61FFF76CFB23682B62DF
:10359000724B1B6848F8043FDBF83446DBF83836DA
:1035A000DBF83C561C44AC42CBF834465BD3CDE947
:1035B000019AB02101204FF0020CC246DBF8302600
:1035C0000026641B01320096009F7B1001FB03F66E
:1035D00007F0010E0EEB8E0806EB08165E4496F817
:1035E0002A60013E032E2ED8DFE816F0CA008500BF
:1035F000F100040001FB03F30EEB8E0E03EB0E1340
:103600005B4493F83CE000FA0EF6013E16401AD1F6
:10361000584F22FA0EFED3F8348093F83D900EF006
:10362000070EBE441EF809E06FEA080909FB0EFE0A
:1036300008EBEE08B8F1000FDBBF5E630326C3F8AA
:10364000348083F82A60009B0133122B0093BBD196
:10365000AC42B5D2D046DDF80490DDF808A0CBF836
:103660003026CBF834460024B02629E0D7F8A0E075
:10367000414FCEF3C21C07EB0C1C1CF90AC00EEB29
:103680000C07C7F3090EC7F38227C7F10707BCF180
:10369000000F28D0394D05FB0EFECD7B4FEA9E2151
:1036A0008901F94005FB010106FB03F302EB8202ED
:1036B000013403EB02135B44122C196100F0AC805F
:1036C000631006FB03F104F0010202EB82000BEB36
:1036D000010701EB0011594491F84CC005460869F7
:1036E000BCF1000FC2D106FB03F101EB05115944F7
:1036F00049690144D8E701FB03F60EEB8E0E06EB99
:103700000E165E4496F82930002B9CD196F8403076
:1037100000FA03FE0EF1FF3E1EEA020F93D1154F91
:1037200022FA03F396F841E003F007033B4413F851
:103730000EE0736B9E4440F2FF13BEF5FF7FD8BFCF
:10374000734673637FE700BF4C990020E84E00206A
:10375000EC4E0020F04E0020F44E0020F49D00209E
:103760007C9D0020D0010020DC4E0020B84E0020BF
:10377000E04E002074030020500100209A20010038
:1037800001FB03F30EEB8E0E03EB0E130BEB0306A4
:1037900096F8403000FA03FE0EF1FF3E1EEA020EDC
:1037A0007FF451AF334F22FA03F396F8418003F0D0
:1037B00007033B4413F80880736B4344B3F5FF7F62
:1037C000C4BF40F2FF1386F82AE073633BE701FBB6
:1037D00003F60EEB8E0E06EB0E165E4496F83E30A8
:1037E00000FA03FE0EF1FF3E1EEA020F7FF42BAF3C
:1037F000204F22FA03F396F83FE003F007033B441F
:1038000013F80EE0736BB76B7344BB427363FFF442
:103810001AAF86F82AC016E7DBF85836DBF85C26C4
:1038200013449AB2180CCBF858260CD0DBF8543657
:10383000114A43F3000111404B4001384FEA530352
:10384000F7D1CBF85436099B09F101094B457FF4B8
:103850003FAE0BB0BDE8F08FDBF85416584601F0D0
:103860000101FFF7ABFA054B054A1B68C2E90633B5
:1038700013628DE674030020020380007C9D00200B
:10388000B84E002000230122AA2140F2022CC0E9F8
:1038900002320B4AC0E907331268C0E90C33C0E9B1
:1038A0000E33A0F844C080F846304161436203649F
:1038B00003600361C362426083628361704700BF3B
:1038C000D41C002000234FF0010C40F20221AA2258
:1038D00010B5DFF830E0C0E90733DEF80040C0E99A
:1038E0000C33C0E90E33C0E9023CC0E90A33C0E939
:1038F000052344604362036403600361A0F844103D
:1039000010BD00BFD41C002080F84610704700BFD7
:10391000036C01F001018B4207D0022281F0010308
:103920005B0080F8453001644262704790F8443093
:10393000C1F3031201F00F01C0E90C2123B9064BBA
:1039400053F8223043607047012B00D07047024B80
:1039500053F8213043607047D41C002090F8443065
:10396000C1F30312022B01F00F01C0E90E2103D1B4
:10397000024B53F821304360704700BFD41C002035
:1039800080697047002344F6EF016922DFF810C018
:10399000C0E90233C0F814C003614160826170471E
:1039A0009A9901004DF2D42C00230CFB01F10CFB81
:1039B00002F249135213C0E90521C0E903338360C1
:1039C000704700BF01707047002944F6EF0318BF2D
:1039D00000234360704700BF0023C0E90233036146
:1039E000704700BF00232DE9F04FC44A8FB0127812
:1039F0000546C0E90133C0E90333C0E90533C0E936
:103A00000833C0E90A332AB3BD4B0593059CBD4A70
:103A1000236846F2F16183FB02321B0C43EA024346
:103A2000B94A00209A42A8BF1A468B422B632870DD
:103A3000A8BF0B4628464FF4B5616A631F226C6429
:103A4000B24CC5E90E31EC61B14CEA64AC640FB024
:103A5000BDE8F08FAF4B0D900C93A94B05930C9BD9
:103A600053F8184C53F8105CAC4200F09B8153F8AB
:103A70000C0C53F8209C53F8088C03F0FDFD0C9BB4
:103A8000064653F8140C0F4603F0F6FD02460B46AB
:103A900030463946CDE9082303F058FDCDE90A0147
:103AA000284603F0E9FDCDE90201204603F0E4FDDC
:103AB00082468B46DDE9020152465B4603F046FD35
:103AC0004C45CDE9000100F052830C9B53F81C0CCF
:103AD00003F0D2FD02460B463046394603F036FD70
:103AE000064648460F4603F0C7FD02460B46DDE991
:103AF000020103F02BFD02460B463046394603F027
:103B00005FFD4545CDE9060100F077830C9B53F836
:103B1000040C03F0B1FDDDE9082303F017FD0646B0
:103B200040460F4603F0A8FD52465B4603F00EFDEB
:103B300002460B463046394603F042FD06460F4624
:103B4000AC4200F32F81DDE9060132463B4603F02B
:103B5000E9FCDDE90A2304460D461046194603F048
:103B6000E1FCDDE9008942464B4603F029FD0246AF
:103B70000B462046294603F0E9FC424604460D4622
:103B80004B464046494603F0F5FC02460B462046AC
:103B9000294603F015FDDDE90623804689463046B7
:103BA000394603F0D3FCDDE9002303F009FD52465A
:103BB00004460D46DDE902015B4603F0B3FC00223A
:103BC000554B03F0D7FC42464B4603F0D3FC02466C
:103BD0000B462046294603F0B9FC00224F4B03F068
:103BE000C9FC02460B4604460D4603F09BFC064604
:103BF0000F460022484B5046594603F0BBFC424654
:103C00004B4603F0B7FC32463B4603F08BFC524672
:103C10005B4603F0AFFC02460B46DDE9060103F00C
:103C200095FC5246CDE906015B464046494603F005
:103C3000A1FC22462B46CDE9004503F073FC524619
:103C40005B4603F097FCDDE9062303F06BFC52466C
:103C50005B4603F08FFC04460D4602460B46DDE949
:103C6000080103F073FC22462B4603F05BFC0022A4
:103C70002B4B04460D465046594603F053FC002298
:103C8000CDE90801244B4046494603F073FCDDE9C9
:103C9000082303F06FFC32463B4603F043FC5246D8
:103CA0005B4603F067FCDDE90023CDE90A014046ED
:103CB000494603F037FCDDE9062303F033FC0246F6
:103CC0000B46DDE90A0103F02DFC02460B46404697
:103CD0004946904699460022124B03F04BFC02469F
:103CE0000B46DDE90801CDE9062303F043FC32462B
:103CF0003B4603F017FC06460F4640E07A060220DA
:103D0000184F0020A1960600C69B01003AFEFFFF57
:103D1000AC1D0020CC1D0020000008400000E03F4A
:103D20000000F03F000018400020002103F0C8FC14
:103D3000009B4246186029464B46204603F0F2FBA2
:103D400032463B4604460D464046494603F0EAFBF0
:103D5000DDE90623804689463046394603F0E2FB1A
:103D60000022BC4B06460F465046594603F0DAFB8C
:103D7000DDE9022382468B4603F0ECFC90B1594604
:103D8000504603F09DFC059B002203EB800300934B
:103D900020460023294603F0C9FC0028C4D1204650
:103DA0002946C3E70C9BAC4A08339A420C937FF434
:103DB00056AEAA4B0C930C9B53F8184C53F8105C5E
:103DC000AC4200F0908153F80C0C53F8209C53F84F
:103DD000088C03F051FC0C9B064653F8140C0F465C
:103DE00003F04AFC02460B4630463946CDE908232B
:103DF00003F0ACFBCDE90A01284603F03DFCCDE918
:103E00000201204603F038FC82468B46DDE90201C0
:103E100052465B4603F09AFB4C45CDE9000100F0A9
:103E200074810C9B53F81C0C03F026FC02460B46D5
:103E30003046394603F08AFB064648460F4603F0F3
:103E40001BFC02460B46DDE9020103F07FFB024644
:103E50000B463046394603F0B3FB4545CDE9060134
:103E600000F0B6810C9B53F8040C03F005FCDDE96F
:103E7000082303F06BFB064640460F4603F0FCFBAD
:103E800052465B4603F062FB02460B46304639461B
:103E900003F096FB06460F46AC4200F32481DDE9B1
:103EA000060132463B4603F03DFBDDE90A230446AA
:103EB0000D461046194603F035FBDDE90089424600
:103EC0004B4603F07DFB02460B462046294603F095
:103ED0003DFB424604460D464B464046494603F0EC
:103EE00049FB02460B462046294603F069FBDDE903
:103EF0000623804689463046394603F027FBDDE934
:103F0000002303F05DFB524604460D46DDE9020145
:103F10005B4603F007FB0022514B03F02BFB4246AC
:103F20004B4603F027FB02460B462046294603F08A
:103F30000DFB00224B4B03F01DFB02460B460446D3
:103F40000D4603F0EFFA06460F460022444B50465A
:103F5000594603F00FFB42464B4603F00BFB32463B
:103F60003B4603F0DFFA52465B4603F003FB024692
:103F70000B46DDE9060103F0E9FA5246CDE90601F8
:103F80005B464046494603F0F5FA22462B46CDE90A
:103F9000004503F0C7FA52465B4603F0EBFADDE951
:103FA000062303F0BFFA52465B4603F0E3FA0446E9
:103FB0000D4602460B46DDE9080103F0C7FA22462A
:103FC0002B4603F0AFFA0022224B04460D46504622
:103FD000594603F0A7FA0022CDE90801204B4046DC
:103FE000494603F0C7FADDE9082303F0C3FA324675
:103FF0003B4603F097FA52465B4603F0BBFADDE915
:104000000023CDE90A014046494603F08BFADDE979
:10401000062303F087FA02460B46DDE90A0103F0A6
:1040200081FA02460B464046494690469946002290
:104030000D4B03F09FFA02460B46DDE90801CDE97E
:10404000062303F097FA32463B4603F06BFA064626
:104050000F4638E00000F03FAC1E0020341D002069
:10406000000008400000E03F000018400020002150
:1040700003F026FB764B009A294643F8220042467D
:104080004B46204603F04EFA32463B4604460D4668
:104090004046494603F046FADDE906238046894654
:1040A0003046394603F03EFA00226A4B06460F4678
:1040B0005046594603F036FADDE9022382468B4624
:1040C00003F048FB78B15946504603F0F9FA002254
:1040D000009000232046294603F028FB0028C5D184
:1040E00020462946C4E70C9B5B4A083393420C9355
:1040F0007FF461AE4FF40052554958480D9D08F0C9
:104100005BFF0123564A137080E4454500F095801B
:104110000C9B53F8040C03F0AFFADDE9082303F01D
:1041200015FA064640460F4603F0A6FA52465B468D
:1041300003F00CFA02460B463046394603F040FACB
:1041400006460F46DDE90A010022464B03F012FA4B
:10415000DDE9002303F034FA32463B4603F0F6F97A
:104160000022414B03F006FACDE9060194E64545ED
:1041700058D00C9B53F8040C03F07EFADDE90823B9
:1041800003F0E4F9064640460F4603F075FA52463E
:104190005B4603F0DBF902460B463046394603F036
:1041A0000FFA06460F46DDE90A0100222D4B03F007
:1041B000E1F9DDE9002303F003FA32463B4603F060
:1041C000C5F90022284B03F0D5F9CDE90601B7E483
:1041D0000022DDE90A01234B03F0CCF9DDE90023DD
:1041E00003F0EEF9DDE9062303F0B0F900221E4BDF
:1041F00003F0C0F906460F464EE60022DDE90A014B
:10420000184B03F0B7F9DDE9002303F0D9F9DDE934
:10421000062303F09BF90022134B03F0ABF906468B
:104220000F468DE402460B46DDE90A0103F0C8F9AA
:1042300006460F46CDE9060182E402460B46DDE95B
:104240000A0103F0BDF906460F46CDE9060123E653
:10425000186F00200000F03FB41D0020182C002033
:104260007A060220000008400000E03F2DE9F843F4
:104270000F468146204C521A204E04F5005801EB9F
:10428000420554F8040F43F2D402002385FB0001D9
:1042900009F0AAF84445384446F8040FF1D142F237
:1042A0001072D9E9011341F69E3046F2F16403FB26
:1042B00002F2D9F8443053F82130114983FB01311F
:1042C0001B0C43EA01430F499C42A1FB02120E4919
:1042D00000EBD202B1FBF2F20C49A8BF1C468B42A4
:1042E000C9F83030A8BF0B46C9F83840C9F83C209F
:1042F000C9F83430BDE8F883142C0020146F002076
:10430000A19606008988888800409C00C69B010011
:1043100070B547F6FF75DFF890C0144606460239BF
:104320000CF500509A1A31F9023F02FB03F303EB3C
:10433000050E33EA230328BF734604EBE3334CF83E
:10434000043B6045EFD142F2107241F69E3046F2D6
:10435000F164049B71683364B36803FB02F2736C0D
:1043600053F821300C4983FB01311B0C43EA014314
:104370000A499C42A1FB0212094900EBD202B1FB9F
:10438000F2F20849A8BF1C468B423363A8BF0B4614
:10439000B463F263736370BDA19606008988888850
:1043A00000409C00C69B0100184F002010B579B357
:1043B00000231324DFF880C0184A017042F2107104
:1043C000C3614368C46452F82330C0E9112C826889
:1043D00041F69E3C01FB02F2114983FB01311B0CAB
:1043E00043EA014346F2F1619942A8BF194681634D
:1043F0000C490363A1FB02120B490CEBD202B1FB87
:10440000F2F20A49C2638B42A8BF0B46436310BD58
:104410001F24074BDFF824C0064ACEE7186F0020A0
:10442000A19606008988888800409C00C69B0100F0
:104430003AFEFFFF184F0020141D0020AC1D002085
:10444000002346F2F16100B5C0E90133C0E903334E
:10445000C0E90533C0E90833C0E90A33436C0B4AAD
:104460001B684FF4B56E83FB02321B0C43EA024318
:10447000074AC0F83CE09A42A8BF1A469942A8BF32
:104480001946C0E90C32816300BD00BFA196060049
:10449000C69B0100436801F0070103F4FF630B436F
:1044A000416C00B5436051F82330094A094983FB48
:1044B00002321B0C43EA024346F2F1629942A8BF62
:1044C00019469A42A8BF1A46C0E90C31826300BD62
:1044D000A1960600C69B01004368C90003F00703CC
:1044E00001F4FF611943436C00B5416053F821307A
:1044F000094A0A4983FB02321B0C43EA024346F293
:10450000F1629942A8BF19469A42A8BF1A46C0E96B
:104510000C31826300BD00BFA1960600C69B01005E
:1045200042F2107341F69E3C10B5C1F3031404FB34
:1045300003F3DFF820E0064AAEFB03E30CEBD30CF9
:10454000B2FBFCF201F00F018460C160C26310BDD8
:1045500000409C008988888801F08002C1F3021322
:1045600001F00F01C0E9042381617047F8B50446EA
:10457000FFF738FA04F15000FFF704FA04F16C0574
:1045800004F51F772846B03501F0FEF8AF42F9D1A7
:10459000002504F5E677394604F16C00C4E9AE5510
:1045A00001F024F904F58E70064604F16C0101F067
:1045B0001DF93846314601F019F90E4A0E4BD4F870
:1045C000B802C4E9A435C4F8842284F88C52A4F853
:1045D0009C5208B104F084F9D4F8BC0208B104F08C
:1045E0007FF900232046C4E9AE33C4E99F33C4F801
:1045F0008832F8BD008A70495B571600F8B504464A
:104600000E4600F16C0500F51F7728463146B0359F
:1046100001F0D4F8BD42F8D131462046FFF7C6FE7E
:10462000314604F15000BDE8F840FFF7CDB938B588
:10463000044600256C3001F0E9F804F58E70C4F8EA
:10464000AC5201F0E3F804F5E670C4F8B05201F0A2
:10465000DDF82046C4F8B452C4F8A852FFF7F0FEC3
:1046600004F15000FFF7B8F9C4E99F5538BD0000C8
:104670004B0103EB0113C0F88832704700EB810057
:10468000C0F8AC22704700BF036E064AD0F8A812EB
:1046900082FB0302D817C0EB6200084400F30F004E
:1046A000704700BFE9A28B2E38B5054600F5E670CD
:1046B0000C4601F0C1FA034605F50A702370FFF7B6
:1046C0005FF9607038BD00BF4FF40053C0E99F230D
:1046D00018297CD8DFE801F077736F6B67635F5A46
:1046E00055504B46413C37322D28231E19161310C6
:1046F0000D001146FFF730BF1146FFF711BF1146FD
:10470000FFF7EABE1146FFF7C5BE114600F50A7075
:10471000FFF724B9114600F50A70FFF707B91146F3
:1047200000F5E67001F064B8114600F5E67001F09E
:10473000E1B8114600F5E67001F0CCB8114600F57D
:10474000E67001F0C1B8114600F5E67001F0B4B8AA
:10475000114600F5BC70FFF701B9114600F5BC70B9
:10476000FFF7E4B8114600F58E7001F041B811462C
:1047700000F58E7001F0BEB8114600F58E7001F0A4
:10478000A9B8114600F58E7001F09EB8114600F5EB
:104790008E7001F091B81146C830FFF7DFB81146AE
:1047A000C830FFF7C3B811466C3001F021B811468C
:1047B0006C3001F09FB811466C3001F08BB8114697
:1047C0006C3001F081B811466C3001F075B870475B
:1047D0005030FFF7F7B800BF2DE9F04F2DED0E8BED
:1047E00009EE903A931E012B1546044608EE901AE6
:1047F00087B02CD988EEA97ADFEDDD7A67EE277ACB
:1048000084F88C2217EE900AC4F8841208F0E0FDB8
:104810000022D84B02F086FE02F052FF0023D4F8AB
:10482000B822C4E9A403A4F89C3212B1104604F0E3
:1048300057F8D4F8BC0208B104F052F80023C4E9D8
:10484000AE33012007B0BDEC0E8BBDE8F08FDFED7D
:10485000CA7A68EEA77A9FEDC97AC7EEA96AF4EE24
:10486000C76AF1EE10FA80F29F81DDED1E7AF5EE57
:10487000C07AF1EE10FA00F19D8117EE900A08F06F
:10488000A7FD064619EE900A0F4608F0A1FDAEA35B
:10489000D3E9002302F06EFE0022B64B02F06AFE5E
:1048A00002460B463046394602F07CFF002840F0B5
:1048B0007B811F9808F08CFDA3A3D3E9002302F0AD
:1048C00035FF0646002840F06F81B7EE00AADDED07
:1048D0001F7AF4EECA7AF1EE10FA00F3658188EEE1
:1048E000A99ADFEDA37A69EE277AC4EDA18A17EEC3
:1048F000900A84F88C5208F06BFD9E4B002202F067
:1049000011FE02F0DDFEDDED1E7A77EEA77A87EE6E
:10491000A98A9FED9B5A3AEE487A0123DFED995A16
:104920009FED996AF0EE4A6AF0EE4AEA27EE057AC0
:10493000C4E9A406A4F89C6207EE903AF8EEE77A80
:1049400085EEA75A65EE057A66EEA76A7EEEA6EAC0
:104950006EEE867AF4EEE76AF1EE10FA03F10103E7
:10496000EADA17EE100A08F033FD79A3D3E9002341
:1049700002F000FE02460B4677A1D1E9000102F0E9
:104980001FFE00227B4B02F0CDFD02F099FE431C7E
:1049900023F0010307EE903AF8EEE77A67EE897AA2
:1049A000FDEEE77A022D17EE903A0CBFDFED777A35
:1049B000DFED777AC7EE897A013343F0010317EE12
:1049C000900AC4F8A032019303F0B2FC08F000FD95
:1049D00063A3D3E9002302F0F3FD02F045FD02F0EA
:1049E0006FFE0122D4F8BC328240C4F8A4223BB14D
:1049F000184603F075FFD4F8A032D4F8A42201932E
:104A0000019B644902FB03F38B428CBF4FF0FF30E4
:104A10005800009203F062FF009AC4F8BC02002A1A
:104A200040F31981019B03EBD3735B10C3F1000CBE
:104A30006345C0F210814CA7D7E9006706EE102A43
:104A4000B7EE00EA9FED4E7ADFED537AF8EEC6CA74
:104A500038EE0EEA9DED1F6AC9EEA86A66EE277A67
:104A6000F6EE00BA2EEE07EA994667EEA67A2EEE2B
:104A70002BEA06EE109A67EE8E7AC3EBC37300EB57
:104A80004303029300239FED45BA9FED45CADFED36
:104A90003E9AF8EEC6AA87EE87AA4FF0000ACDE943
:104AA000032CDFF8D0B0009309F101080594DDED87
:104AB000007AF8EEE77A029BB7EE008AC7EEAC8A7E
:104AC000049C03EB49051BE01DEE100A03F098FD62
:104AD00007EE100AC7EE0D7A67EE8A7A67EEAD7AB6
:104AE00017EE900A08F074FC52465B4602F01AFD7D
:104AF00002F0E6FD01344445288000F0A280023532
:104B000007EE904AF8EEE77A77EEE87A87EEAA7A2F
:104B1000F0EEC76AF4EEC86A6EEE277AF1EE10FA8C
:104B200087EE89DA66D9F0EE4BDAF0EECD7A17EE41
:104B3000900A08F04DFC32463B4602F01FFE00286A
:104B4000C2D16AEE2D7ACBE7CDCCCCCCCCCCEC3F2D
:104B500048E17A14AE470240333333534B18564082
:104B6000EF39FAFE422EE63F8DEDB5A0F7C6B03E16
:104B7000000080470000E03F0000FA42000080464D
:104B8000DB0F49402D829A40BD37863500808E4329
:104B900000114947FCFFFF3F0000004700000000F4
:104BA0002D821A4100401C47002007B0BDEC0E8B3F
:104BB000BDE8F08F5FED057AC7EEA97A17EE900A8F
:104BC00008F006FC2AA3D3E9002302F0D7FD002851
:104BD00045D019EE900A08F0FBFB25A3D3E900238A
:104BE00002F0C8FC0022204B02F0C4FC02F036FDAB
:104BF0001E905EE6F0EE487AE7EE477AF1EEE75A6D
:104C0000F7EE006A65EE8C5A0123B0EE666A65EE37
:104C1000AB5A07EE903AF8EEE77A85EEA77A27EEE0
:104C2000077A66EE876A36EE266A66EE297AF4EE31
:104C3000E76AF1EE10FA03F10103EADAC6EE2EDAC2
:104C400073E7019A009B9144039A013393420093C6
:104C50007FF42DAF059C0023C4F89832F1E5DFED19
:104C6000037ACDED1E7A24E60000E03F00409C462A
:104C7000CDCCCCCCCCCCEC3F2DE9F04F0346044658
:104C8000064600F5047A4FF0000C47F6FF784FF027
:104C9000010E0846DFF8C89089B0D3F8EC208AB13D
:104CA00093F80D21002A40F08983C3F8F020D3F84F
:104CB000F81083F80C21294A52F82120C3F8CC209F
:104CC000C3F8ECC0D3E93225AF1A07EB0801002F77
:104CD000D8BF0F46002850D09346214602465C4676
:104CE0008B460190D3F8DC109742C3F8E01000F334
:104CF000198393F80C41D21B002C40F0F981C3F8C2
:104D0000D040D3F8F04094BB4C1CE4B2FF2CC3F865
:104D1000DC4000F015831A2C00F220831A2C21D8D5
:104D2000DFE814F0DA01200020002000200020003D
:104D3000D6012000200020002000200020002000BC
:104D4000D2012000200020002000200020002000B0
:104D50002000200020002000C70100BFD41C00203C
:104D6000941C0020D3F8D810002940F003852F466A
:104D70000024002AB6D15C460198C3F8C820B0339D
:104D800053458AD183463046BBF1000F00F0B48012
:104D9000D6F8D0315F469846D6F870C0D6F8209144
:104DA0000794CDE905C9059B996C002900F096820E
:104DB000C26F002A00F09282446F14F4000F0CBFFF
:104DC0004FF400034FF080731B1BB3FBF2FC02FB9C
:104DD0001C330BB10CF1010CBC45A8BFBC46069BB3
:104DE0009A6CAAB1D0F82C5195B1D0F8244114F4A2
:104DF000000F0CBF4FF400034FF080731B1BB3FB7D
:104E0000F5F405FB143303B10134A445A8BFA4464F
:104E1000D8F84850BDB1D0F8DC41A4B1D0F8D431B5
:104E200013F4000F0CBF4FF4000E4FF0807EAEEB7A
:104E30000303B3FBF4FE04FB1E330BB10EF1010EB2
:104E4000F445A8BFF44604464646CDE902710492F3
:104E5000D4F8AC30002B00F07981D4F888309BB1C5
:104E6000A3EB0C03002BC4F888300DDC0023B44FF7
:104E7000C4E921734FF47F63A4F89630B4F89430FA
:104E800043F47F63A4F8983040F6FF73A4F89C3095
:104E9000B0345445DCD1DDE9027190F87830B04689
:104EA000049A4BB141B1D0F8B43013B1C36E1B7B3F
:104EB00013B90021059B996090F8283153B14AB18C
:104EC000D0F864311BB1D0F81C311B7B13B9002220
:104ED000069B9A6090F8D8314BB145B1D0F81432A6
:104EE0001BB1D0F8CC311B7B0BB9C8F80830B7EB3D
:104EF0000C077FF458AF079CD4F8A020002A00F0DC
:104F0000FF8112F00305B4F8981040F02E82B4F837
:104F10009C30B4F89A502B430B40C3F30B03C4F8F6
:104F2000B830C4F8A830082A31D9D4F8AC2072BB04
:104F30005A02190201F4802102F480120A43C3F3D9
:104F400000110A43590101F480410A43D90001F4D8
:104F500000610A43990001F400710A43590801F005
:104F600020010A43D90801F004010A43B4F896105D
:104F70000B407449A4F896300A43D4F884101140C9
:104F8000B4F89420C4F884101343A4F89830B034D3
:104F90005445B1D16C4BD0F8BC20B0F9DC609A42DA
:104FA00090F8C030D0F8B820C8BFC0F81861002B06
:104FB00000F04B8212B26449D0F86C31B0F98C51D8
:104FC0008B4290F87011D0F81091D0F81481D0F87D
:104FD0006831C8BFC0F8C851002900F028821BB250
:104FE000594FD0F81C12B0F93C42B94290F82072E7
:104FF000D0F81812C8BFC0F87842D0E970EC002F82
:1050000000F0318209B2D0F8AC7217F0020F04BF81
:10501000A2EB090206FB0286D0F8B0821CBF3A114F
:10502000564318F0020F0BBFA3EB0E034FEA2812F2
:1050300005FB03C26A43D0F8B452AB0700F1C68146
:10504000D0F87032CB1AD0F8741204FB031317F0A7
:1050500001011CBF002627F0030118F0010F40F0EA
:10506000B981C0F8A812EC0705D525F003030B445D
:10507000C0F8A83200230569D0F88812C4681DB1B1
:1050800014F0040F08BF0023013C0E2C00F27583BE
:10509000DFE814F0A402AA02FD01920298029E0227
:1050A000B002B602BC02C202CF02D502DB02EA02A3
:1050B000C802082193F80D41032CC3E9351C7FF485
:1050C00056AEC3F8F0E052E6102193F80D41F3E735
:1050D0001E2193F80D41EFE74FF0030183F80D1106
:1050E0000221C3E935ECC3F8EC10C3F8F0E03EE66A
:1050F000D3F8D070D3F8D40001378742C3F8D0700A
:105100007FF435AED3F8F070C3F8D0C0002F7FF431
:105110002EAE012C00F0E980022C00F0E1800C465C
:105120001A2C7FF6FBAD5D2C00F01B81FF2C00F0EC
:105130001181362C7FF416AE042193F80D41BBE7A4
:10514000FFFF7F00DAB5EBFFBF3F0100E16F636F48
:1051500001FB0CF1CF1827F07F4E2EEA0303DB0D85
:1051600084F87830C4F874E0002900F0AE8017F4B9
:10517000002FCDF804C04FF480174FD196E0B1F561
:10518000002FAEEB010303D813F4002340F09B8003
:105190000F460021D4F88420B4F894C0930D83EA1C
:1051A000524303F0010343EA4203C3F316035A00D8
:1051B0004FEAC30808F0200802F040024FEA031942
:1051C00042EA080209F010094FEA632842EA09029C
:1051D00008F400684FEA232942EA080209F48069CA
:1051E0004FEA631842EA090208F400784FEAE3093B
:1051F00042EA080209F480794FEAA30842EA090961
:1052000008F0800849EA080848EA0C0CC4F8843021
:10521000A4F89680A4F898C0002954D0B942AED31F
:10522000C91BB7E7C91BD4F88420B4F894C0530C49
:1052300083EA925303F0010343EA4203C3F31603E4
:105240005A004FEAC30808F0200802F040024FEA73
:10525000031942EA080209F010094FEA632842EAFA
:10526000090208F400684FEA232942EA080209F417
:1052700080694FEA631842EA090208F400784FEAAD
:10528000E30942EA080209F480794FEAA30842EAF6
:10529000090908F0800849EA080848EA0C0CC4F833
:1052A0008430A4F89680A4F898C061B1B942B9D20C
:1052B000B1F5002FAEEB010305D913F4002302D1A1
:1052C0000F461946AFE7DDF804C0D4F88030B3EBE1
:1052D0001E3F40F6FF7388BF0023D7E5BC467EE53E
:1052E0000139CCB2C3F8DC401AE7D3F8004159F8D1
:1052F0002440A1423FF414AF4C1EC3F8DC400FE73A
:10530000D4F8BC30002B3FF442AEA3EB0B03934226
:10531000D4BFC4E92E22C4F8BC30B03454457FF465
:10532000EBAD37E6594604EB020B1BF4004F1CBFF4
:105330000BF1010BCBF30E0B0C465A4601981CE502
:105340000121D3F8FC4083F80C11C34951F82450D3
:10535000C3F8CC50012193F80D41ADE65D2C7FF4EC
:10536000E8AE022193F80D41A6E6E36E012D9E689A
:10537000D4F8903023EA0603666F83EA06033AD036
:10538000022D4FEA13333FD0B4F89C50B4F89A7012
:105390003D430D40D4F8C410CB5C05EA0313C4F8B8
:1053A000B830C4F8A83094F8C01000297FF4BBAD21
:1053B000AA4941EA033131406167B4E5022A10D0BD
:1053C000032A04BF0122C3F8F02079E42B1104FB67
:1053D00003F33CE628F0030841440022C0F8A81279
:1053E00041E6D3F8041183F80C219B4A52F821209E
:1053F000C3F8CC2064E440F6FE7743F3C0556FF366
:105400000B036B4007EAD323B4F89A50B4F89C70AE
:105410003D4329400B409107C4F8B830C4F8A83088
:105420007FF581AD12F00D0F3FF47DADBBE78C4CE5
:1054300003F03F01615C8B4FC3F385143C5D9039F1
:1054400003F47C630B442344CAE5854C02F03F031C
:10545000E35CC2F38511903B02F47C621344814A01
:10546000525C1A44A7E5DFF8F8A101F03F071AF8EB
:105470000770C1F3851A903F01977A4F01F47C6160
:1054800017F80AA0019F0F440AEB0701BBE532445D
:1054900019444FEAE218CC11C462BBF1000F25D0C9
:1054A000D0E908310278D0F83CA0866A002A00F0E2
:1054B000E1805F460825D0F838C0BD42A8BF3D4610
:1054C00005FB0CF2921102FB03F301FB02F2A1EBCC
:1054D000A33101FB0AF3A6EBA236C6EBA3237F1B85
:1054E000A3EB0803E9D1C0E9091603624369013B54
:1054F000062B0BD8DFE803F055525B584D380400FB
:10550000D0E909231344026A13441C44D0E906324B
:10551000144403FB04F590F8503093B3BBF1000F33
:105520001FD00823D0F864E0816DD0F868C0C66D44
:105530005B45A8BF5B460EFB03F20CFB03F48F1B1D
:10554000A5EB0108121208FB02F207FB04F4BBEB07
:10555000030B01EB223106EB2456E9D1C0E9161604
:10556000076609B0BDE8F08FD0E9082313441C4456
:10557000D0E90632144403FB04F590F85030002BB8
:10558000CCD1426D8365AA1AC0E9173209B0BDE8D3
:10559000F08F836A026A13441C44B7E7436A1C44D1
:1055A000B4E7836A1C44B1E7036A1C44AEE7D0E960
:1055B000092313441C44A9E7B4180C444FEAE31828
:1055C000E41169E7334411444FEAE318CC1163E76F
:1055D000134431444FEAE318CC115DE713440B4404
:1055E0004FEAE618DC1157E733440B444FEAE21860
:1055F000DC1151E7324413444FEAE318CC114BE776
:10560000B4181C444FEAE118E41145E7314413444F
:105610004FEAE118DC113FE7114433444FEAE11847
:10562000DC1139E7164433440B4400244FEAE318F5
:1056300032E732440A444FEAE218DC112CE71944FD
:10564000B4184FEAE118E41126E733440B444FEA5B
:10565000E318D41120E700BFD41C0020FFFF7F0017
:105660006C2301102C23011013440B444FEAE31860
:10567000F41111E7D0E91052DE46CDF80CB008273E
:105680009446AB46D0F80490029458E0FF2AA8BF95
:10569000FF2240F2FF7440F2215502FB0B92A2421E
:1056A000A8BF2246CC0004F5AA34A03405FB04F4BC
:1056B00009EB24446408A4F26E44A51001954DF250
:1056C000D4255CF8222005FB02F246F2F165521364
:1056D000AA42A8BF2A4607FB02F2002C4FEAA212F8
:1056E00043DD019CFF2CA8BFFF240BFB049503FBAB
:1056F00002F240F2FF739D42A8BF1D464DF2D42432
:105700005CF8253004FB03F346F2F1645B13A3421B
:10571000A8BF234607FB03F39B1101FB03F3A1EB97
:10572000A231A6EBA33601FB0AF3C6EBA323A3EB3E
:105730000803BEEB070EC0E90916036217D040F25A
:105740002154DA0002F5AA32A03204FB02F209EB7E
:10575000224252087745A2F26E42A8BF7746002A3D
:105760004FEAA20292DC002293E74D46BFE7DDE953
:10577000024BBBE693F80D419EE4B4181C440C4464
:105780004FF00008E41187E638B5044600F04AF807
:1057900004F15C00FEF776F82046002100F076F870
:1057A00004F15C000021FEF7AFF84FF460724FF493
:1057B000FF232046C4E9292338BD00BF38B50D4674
:1057C000044600F063F8294604F15C00FEF79CF8FB
:1057D00035B94FF460724FF4FF23C4E9292338BD73
:1057E0004FF400620023C4E9292338BD00F04AB811
:1057F00000B583B0CDE9001000F08EF8DDE90010AF
:105800005C3003B05DF804EBFEF782B800B583B0FE
:10581000019000F015FA01985C3003B05DF804EBDC
:10582000FEF750B840F2555200238263114A40F609
:10583000FF7182656FF0F022DFF840C0C0E90433E9
:10584000C0E91033C0E90733C0F808C080F854300D
:10585000DFF82CC00373436383644362C364C36390
:105860000365054B0060C0F818C00186C262836200
:10587000704700BFAC230110FF0FF00F55555500C6
:10588000FFFF7F0001604860704700BF436B80F8F6
:10589000541003F00703042B07D9064A043B03EB1B
:1058A000810302EB033383657047024B03EB8133C3
:1058B00083657047AC2301100369C9B203F47F43C9
:1058C0000B430361704700BF037C090289B219438F
:1058D000016170474369C9B203F470630B43816887
:1058E00040F6FF72B3EB113F88BF0022436102868E
:1058F000704700BF90F814C00902826801F470611B
:1059000041EA0C01B1EB123F40F6FF7388BF002360
:1059100041610386704700BF0B462DE9F04F426B93
:1059200083B0924603F00402426403F002028264F0
:10593000C3F30212C1F303154FEA111C042A01F04C
:105940000801076C90F854604563016473D9B74C43
:10595000043A02EB860204EB023E40F6FF72DC439F
:105960001CF0080F0CBF91464FF000099B08B0F8DF
:105970002A8003EA5413DB0503F4000349EA08080C
:105980001CF0040FC0F858E04362A0F82890A0F87B
:105990002C8054D00022C285002F40F0DF800029E7
:1059A00040F0E780078E3A4308EA020492461CF072
:1059B00003028768019440F0E780C4F30B02C264DD
:1059C000C263082D2CD959BB036A012B28D053027E
:1059D000110201F4802103F480130B43C2F3001180
:1059E0000B43510101F480410B43D10001F40061EC
:1059F0000B43910001F400710B43510801F02001A9
:105A00000B43D10801F004010B43418D0A40884942
:105A100049EA0204428582690B431A408485826107
:105A2000426940F6FF73B2EB173F88BF002303863D
:105A300003B0BDE8F08F7D4A02EB863E8DE7C2855C
:105A40006FB9002940F09680002DABD1BAF1000F5C
:105A500002D04FF4A033036503B0BDE8F08F0029F6
:105A6000F2D15746082FD0F8188040D9082D3ED0E3
:105A700056B90AF00307012F00F0C980022F03D1A5
:105A80000CF00307012F32D0D0F84CB04FEA4B2472
:105A900004F4801401944FEA0B2404F48027019C41
:105AA0003C43CBF300173C434FEA4B1707F48047C6
:105AB0003C434FEACB0707F400673C434FEA8B07B0
:105AC00007F400773C43CBF34E0707F020073C4335
:105AD000CBF3CC0707F00407274347F07F4747F491
